{
  "contractName": "CourseMarketplace",
  "abi": [
    {
      "inputs": [],
      "stateMutability": "nonpayable",
      "type": "constructor"
    },
    {
      "inputs": [],
      "name": "isStopped",
      "outputs": [
        {
          "internalType": "bool",
          "name": "",
          "type": "bool"
        }
      ],
      "stateMutability": "view",
      "type": "function"
    },
    {
      "stateMutability": "payable",
      "type": "receive"
    },
    {
      "inputs": [],
      "name": "selfDestruct",
      "outputs": [],
      "stateMutability": "nonpayable",
      "type": "function"
    },
    {
      "inputs": [],
      "name": "stopContract",
      "outputs": [],
      "stateMutability": "nonpayable",
      "type": "function"
    },
    {
      "inputs": [],
      "name": "resumeContract",
      "outputs": [],
      "stateMutability": "nonpayable",
      "type": "function"
    },
    {
      "inputs": [
        {
          "internalType": "uint256",
          "name": "amount",
          "type": "uint256"
        }
      ],
      "name": "withdraw",
      "outputs": [],
      "stateMutability": "nonpayable",
      "type": "function"
    },
    {
      "inputs": [],
      "name": "emergencyWithdraw",
      "outputs": [],
      "stateMutability": "nonpayable",
      "type": "function"
    },
    {
      "inputs": [
        {
          "internalType": "bytes16",
          "name": "courseId",
          "type": "bytes16"
        },
        {
          "internalType": "bytes32",
          "name": "proof",
          "type": "bytes32"
        }
      ],
      "name": "purchaseCourse",
      "outputs": [],
      "stateMutability": "payable",
      "type": "function"
    },
    {
      "inputs": [
        {
          "internalType": "bytes32",
          "name": "courseHash",
          "type": "bytes32"
        }
      ],
      "name": "repurchaseCourse",
      "outputs": [],
      "stateMutability": "payable",
      "type": "function"
    },
    {
      "inputs": [
        {
          "internalType": "bytes32",
          "name": "courseHash",
          "type": "bytes32"
        }
      ],
      "name": "activateCourse",
      "outputs": [],
      "stateMutability": "nonpayable",
      "type": "function"
    },
    {
      "inputs": [
        {
          "internalType": "bytes32",
          "name": "courseHash",
          "type": "bytes32"
        }
      ],
      "name": "deactivateCourse",
      "outputs": [],
      "stateMutability": "nonpayable",
      "type": "function"
    },
    {
      "inputs": [],
      "name": "getCourseCount",
      "outputs": [
        {
          "internalType": "uint256",
          "name": "",
          "type": "uint256"
        }
      ],
      "stateMutability": "view",
      "type": "function"
    },
    {
      "inputs": [
        {
          "internalType": "uint256",
          "name": "index",
          "type": "uint256"
        }
      ],
      "name": "getCourseHashAtIndex",
      "outputs": [
        {
          "internalType": "bytes32",
          "name": "",
          "type": "bytes32"
        }
      ],
      "stateMutability": "view",
      "type": "function"
    },
    {
      "inputs": [
        {
          "internalType": "bytes32",
          "name": "courseHash",
          "type": "bytes32"
        }
      ],
      "name": "getCourseByHash",
      "outputs": [
        {
          "components": [
            {
              "internalType": "uint256",
              "name": "id",
              "type": "uint256"
            },
            {
              "internalType": "uint256",
              "name": "price",
              "type": "uint256"
            },
            {
              "internalType": "bytes32",
              "name": "proof",
              "type": "bytes32"
            },
            {
              "internalType": "address",
              "name": "owner",
              "type": "address"
            },
            {
              "internalType": "enum CourseMarketplace.State",
              "name": "state",
              "type": "uint8"
            }
          ],
          "internalType": "struct CourseMarketplace.Course",
          "name": "",
          "type": "tuple"
        }
      ],
      "stateMutability": "view",
      "type": "function"
    },
    {
      "inputs": [],
      "name": "getContractOwner",
      "outputs": [
        {
          "internalType": "address",
          "name": "",
          "type": "address"
        }
      ],
      "stateMutability": "view",
      "type": "function"
    },
    {
      "inputs": [
        {
          "internalType": "address",
          "name": "newOwner",
          "type": "address"
        }
      ],
      "name": "transferOwnership",
      "outputs": [],
      "stateMutability": "nonpayable",
      "type": "function"
    }
  ],
  "bytecode": "0x608060405260008060006101000a81548160ff02191690831515021790555034801561002a57600080fd5b5061003a3361003f60201b60201c565b610083565b80600460006101000a81548173ffffffffffffffffffffffffffffffffffffffff021916908373ffffffffffffffffffffffffffffffffffffffff16021790555050565b611a63806100926000396000f3fe6080604052600436106100ec5760003560e01c80636d11290b1161008a578063c4bc5da511610059578063c4bc5da5146102b8578063d76821cb146102cf578063db2e21bc146102eb578063f2fde38b14610302576100f3565b80636d11290b14610210578063935d7e6d1461024d57806396cfda06146102765780639cb8a26a146102a1576100f3565b80633f683b6a116100c65780633f683b6a14610161578063442890d51461018c5780636136e1eb146101b757806362e4e6ac146101d3576100f3565b806312253a6c146100f85780632e1a7d4d1461010f5780633926257214610138576100f3565b366100f357005b600080fd5b34801561010457600080fd5b5061010d61032b565b005b34801561011b57600080fd5b5061013660048036038101906101319190611268565b6103bc565b005b34801561014457600080fd5b5061015f600480360381019061015a91906112cb565b610503565b005b34801561016d57600080fd5b50610176610698565b6040516101839190611313565b60405180910390f35b34801561019857600080fd5b506101a16106a9565b6040516101ae919061136f565b60405180910390f35b6101d160048036038101906101cc91906112cb565b6106d3565b005b3480156101df57600080fd5b506101fa60048036038101906101f591906112cb565b610843565b6040516102079190611496565b60405180910390f35b34801561021c57600080fd5b5061023760048036038101906102329190611268565b61091f565b60405161024491906114c0565b60405180910390f35b34801561025957600080fd5b50610274600480360381019061026f91906112cb565b61093c565b005b34801561028257600080fd5b5061028b610bb0565b60405161029891906114ea565b60405180910390f35b3480156102ad57600080fd5b506102b6610bba565b005b3480156102c457600080fd5b506102cd610c81565b005b6102e960048036038101906102e4919061155d565b610d12565b005b3480156102f757600080fd5b50610300610ed4565b005b34801561030e57600080fd5b50610329600480360381019061032491906115c9565b611031565b005b6103336106a9565b73ffffffffffffffffffffffffffffffffffffffff163373ffffffffffffffffffffffffffffffffffffffff16146103a0576040517f08c379a000000000000000000000000000000000000000000000000000000000815260040161039790611679565b60405180910390fd5b60016000806101000a81548160ff021916908315150217905550565b6103c46106a9565b73ffffffffffffffffffffffffffffffffffffffff163373ffffffffffffffffffffffffffffffffffffffff1614610431576040517f08c379a000000000000000000000000000000000000000000000000000000000815260040161042890611679565b60405180910390fd5b6000600460009054906101000a900473ffffffffffffffffffffffffffffffffffffffff1673ffffffffffffffffffffffffffffffffffffffff1682604051610479906116ca565b60006040518083038185875af1925050503d80600081146104b6576040519150601f19603f3d011682016040523d82523d6000602084013e6104bb565b606091505b50509050806104ff576040517f08c379a00000000000000000000000000000000000000000000000000000000081526004016104f69061172b565b60405180910390fd5b5050565b60008054906101000a900460ff161561051b57600080fd5b6105236106a9565b73ffffffffffffffffffffffffffffffffffffffff163373ffffffffffffffffffffffffffffffffffffffff1614610590576040517f08c379a000000000000000000000000000000000000000000000000000000000815260040161058790611679565b60405180910390fd5b610599816110b2565b6105d8576040517f08c379a00000000000000000000000000000000000000000000000000000000081526004016105cf90611797565b60405180910390fd5b600060016000838152602001908152602001600020905060006002811115610603576106026113b7565b5b8160030160149054906101000a900460ff166002811115610627576106266113b7565b5b14610667576040517f08c379a000000000000000000000000000000000000000000000000000000000815260040161065e90611803565b60405180910390fd5b60018160030160146101000a81548160ff0219169083600281111561068f5761068e6113b7565b5b02179055505050565b60008054906101000a900460ff1681565b6000600460009054906101000a900473ffffffffffffffffffffffffffffffffffffffff16905090565b60008054906101000a900460ff16156106eb57600080fd5b6106f4816110b2565b610733576040517f08c379a000000000000000000000000000000000000000000000000000000000815260040161072a90611797565b60405180910390fd5b61073c81611121565b61077b576040517f08c379a00000000000000000000000000000000000000000000000000000000081526004016107729061186f565b60405180910390fd5b60006001600083815260200190815260200160002090506002808111156107a5576107a46113b7565b5b8160030160149054906101000a900460ff1660028111156107c9576107c86113b7565b5b14610809576040517f08c379a000000000000000000000000000000000000000000000000000000000815260040161080090611803565b60405180910390fd5b60008160030160146101000a81548160ff02191690836002811115610831576108306113b7565b5b02179055503481600101819055505050565b61084b6111d3565b600160008381526020019081526020016000206040518060a00160405290816000820154815260200160018201548152602001600282015481526020016003820160009054906101000a900473ffffffffffffffffffffffffffffffffffffffff1673ffffffffffffffffffffffffffffffffffffffff1673ffffffffffffffffffffffffffffffffffffffff1681526020016003820160149054906101000a900460ff166002811115610902576109016113b7565b5b6002811115610914576109136113b7565b5b815250509050919050565b600060026000838152602001908152602001600020549050919050565b60008054906101000a900460ff161561095457600080fd5b61095c6106a9565b73ffffffffffffffffffffffffffffffffffffffff163373ffffffffffffffffffffffffffffffffffffffff16146109c9576040517f08c379a00000000000000000000000000000000000000000000000000000000081526004016109c090611679565b60405180910390fd5b6109d2816110b2565b610a11576040517f08c379a0000000000000000000000000000000000000000000000000000000008152600401610a0890611797565b60405180910390fd5b600060016000838152602001908152602001600020905060006002811115610a3c57610a3b6113b7565b5b8160030160149054906101000a900460ff166002811115610a6057610a5f6113b7565b5b14610aa0576040517f08c379a0000000000000000000000000000000000000000000000000000000008152600401610a9790611803565b60405180910390fd5b60008160030160009054906101000a900473ffffffffffffffffffffffffffffffffffffffff1673ffffffffffffffffffffffffffffffffffffffff168260010154604051610aee906116ca565b60006040518083038185875af1925050503d8060008114610b2b576040519150601f19603f3d011682016040523d82523d6000602084013e610b30565b606091505b5050905080610b74576040517f08c379a0000000000000000000000000000000000000000000000000000000008152600401610b6b9061172b565b60405180910390fd5b60028260030160146101000a81548160ff02191690836002811115610b9c57610b9b6113b7565b5b021790555060008260010181905550505050565b6000600354905090565b60008054906101000a900460ff16610bd157600080fd5b610bd96106a9565b73ffffffffffffffffffffffffffffffffffffffff163373ffffffffffffffffffffffffffffffffffffffff1614610c46576040517f08c379a0000000000000000000000000000000000000000000000000000000008152600401610c3d90611679565b60405180910390fd5b600460009054906101000a900473ffffffffffffffffffffffffffffffffffffffff1673ffffffffffffffffffffffffffffffffffffffff16ff5b610c896106a9565b73ffffffffffffffffffffffffffffffffffffffff163373ffffffffffffffffffffffffffffffffffffffff1614610cf6576040517f08c379a0000000000000000000000000000000000000000000000000000000008152600401610ced90611679565b60405180910390fd5b60008060006101000a81548160ff021916908315150217905550565b60008054906101000a900460ff1615610d2a57600080fd5b60008233604051602001610d3f9291906118f8565b604051602081830303815290604052805190602001209050610d6081611121565b15610da0576040517f08c379a0000000000000000000000000000000000000000000000000000000008152600401610d9790611996565b60405180910390fd5b600060036000815480929190610db5906119e5565b9190505590508160026000838152602001908152602001600020819055506040518060a001604052808281526020013481526020018481526020013373ffffffffffffffffffffffffffffffffffffffff16815260200160006002811115610e2057610e1f6113b7565b5b8152506001600084815260200190815260200160002060008201518160000155602082015181600101556040820151816002015560608201518160030160006101000a81548173ffffffffffffffffffffffffffffffffffffffff021916908373ffffffffffffffffffffffffffffffffffffffff16021790555060808201518160030160146101000a81548160ff02191690836002811115610ec657610ec56113b7565b5b021790555090505050505050565b60008054906101000a900460ff16610eeb57600080fd5b610ef36106a9565b73ffffffffffffffffffffffffffffffffffffffff163373ffffffffffffffffffffffffffffffffffffffff1614610f60576040517f08c379a0000000000000000000000000000000000000000000000000000000008152600401610f5790611679565b60405180910390fd5b6000600460009054906101000a900473ffffffffffffffffffffffffffffffffffffffff1673ffffffffffffffffffffffffffffffffffffffff1647604051610fa8906116ca565b60006040518083038185875af1925050503d8060008114610fe5576040519150601f19603f3d011682016040523d82523d6000602084013e610fea565b606091505b505090508061102e576040517f08c379a00000000000000000000000000000000000000000000000000000000081526004016110259061172b565b60405180910390fd5b50565b6110396106a9565b73ffffffffffffffffffffffffffffffffffffffff163373ffffffffffffffffffffffffffffffffffffffff16146110a6576040517f08c379a000000000000000000000000000000000000000000000000000000000815260040161109d90611679565b60405180910390fd5b6110af8161118f565b50565b60008073ffffffffffffffffffffffffffffffffffffffff166001600084815260200190815260200160002060030160009054906101000a900473ffffffffffffffffffffffffffffffffffffffff1673ffffffffffffffffffffffffffffffffffffffff1614159050919050565b60003373ffffffffffffffffffffffffffffffffffffffff166001600084815260200190815260200160002060030160009054906101000a900473ffffffffffffffffffffffffffffffffffffffff1673ffffffffffffffffffffffffffffffffffffffff16149050919050565b80600460006101000a81548173ffffffffffffffffffffffffffffffffffffffff021916908373ffffffffffffffffffffffffffffffffffffffff16021790555050565b6040518060a00160405280600081526020016000815260200160008019168152602001600073ffffffffffffffffffffffffffffffffffffffff16815260200160006002811115611227576112266113b7565b5b81525090565b600080fd5b6000819050919050565b61124581611232565b811461125057600080fd5b50565b6000813590506112628161123c565b92915050565b60006020828403121561127e5761127d61122d565b5b600061128c84828501611253565b91505092915050565b6000819050919050565b6112a881611295565b81146112b357600080fd5b50565b6000813590506112c58161129f565b92915050565b6000602082840312156112e1576112e061122d565b5b60006112ef848285016112b6565b91505092915050565b60008115159050919050565b61130d816112f8565b82525050565b60006020820190506113286000830184611304565b92915050565b600073ffffffffffffffffffffffffffffffffffffffff82169050919050565b60006113598261132e565b9050919050565b6113698161134e565b82525050565b60006020820190506113846000830184611360565b92915050565b61139381611232565b82525050565b6113a281611295565b82525050565b6113b18161134e565b82525050565b7f4e487b7100000000000000000000000000000000000000000000000000000000600052602160045260246000fd5b600381106113f7576113f66113b7565b5b50565b6000819050611408826113e6565b919050565b6000611418826113fa565b9050919050565b6114288161140d565b82525050565b60a082016000820151611444600085018261138a565b506020820151611457602085018261138a565b50604082015161146a6040850182611399565b50606082015161147d60608501826113a8565b506080820151611490608085018261141f565b50505050565b600060a0820190506114ab600083018461142e565b92915050565b6114ba81611295565b82525050565b60006020820190506114d560008301846114b1565b92915050565b6114e481611232565b82525050565b60006020820190506114ff60008301846114db565b92915050565b60007fffffffffffffffffffffffffffffffff0000000000000000000000000000000082169050919050565b61153a81611505565b811461154557600080fd5b50565b60008135905061155781611531565b92915050565b600080604083850312156115745761157361122d565b5b600061158285828601611548565b9250506020611593858286016112b6565b9150509250929050565b6115a68161134e565b81146115b157600080fd5b50565b6000813590506115c38161159d565b92915050565b6000602082840312156115df576115de61122d565b5b60006115ed848285016115b4565b91505092915050565b600082825260208201905092915050565b7f4f6e6c7920636f6e7472616374206f776e65722068617320616363657373207460008201527f6f20746869732066756e6374696f6e616c6974792e0000000000000000000000602082015250565b60006116636035836115f6565b915061166e82611607565b604082019050919050565b6000602082019050818103600083015261169281611656565b9050919050565b600081905092915050565b50565b60006116b4600083611699565b91506116bf826116a4565b600082019050919050565b60006116d5826116a7565b9150819050919050565b7f5472616e73666572206661696c65640000000000000000000000000000000000600082015250565b6000611715600f836115f6565b9150611720826116df565b602082019050919050565b6000602082019050818103600083015261174481611708565b9050919050565b7f436f75727365206973206e6f7420637265617465640000000000000000000000600082015250565b60006117816015836115f6565b915061178c8261174b565b602082019050919050565b600060208201905081810360008301526117b081611774565b9050919050565b7f436f75727365206973206e6f7420707572636861736564000000000000000000600082015250565b60006117ed6017836115f6565b91506117f8826117b7565b602082019050919050565b6000602082019050818103600083015261181c816117e0565b9050919050565b7f53656e646572206973206e6f742074686520636f75727365206f776e65720000600082015250565b6000611859601e836115f6565b915061186482611823565b602082019050919050565b600060208201905081810360008301526118888161184c565b9050919050565b6000819050919050565b6118aa6118a582611505565b61188f565b82525050565b60008160601b9050919050565b60006118c8826118b0565b9050919050565b60006118da826118bd565b9050919050565b6118f26118ed8261134e565b6118cf565b82525050565b60006119048285611899565b60108201915061191482846118e1565b6014820191508190509392505050565b7f596f752061726520616c726561647920746865206f776e6572206f662074686960008201527f7320636f75727365000000000000000000000000000000000000000000000000602082015250565b60006119806028836115f6565b915061198b82611924565b604082019050919050565b600060208201905081810360008301526119af81611973565b9050919050565b7f4e487b7100000000000000000000000000000000000000000000000000000000600052601160045260246000fd5b60006119f082611232565b91507fffffffffffffffffffffffffffffffffffffffffffffffffffffffffffffffff8203611a2257611a216119b6565b5b60018201905091905056fea264697066735822122085d0cce78da53e0d007f37e75fc591baca0cfbb5b7ac56112bcab1871e82f69964736f6c634300080d0033",
  "immutableReferences": {},
  "source": "// SPDX-License-Identifier: MIT\r\npragma solidity ^0.8.4;\r\n\r\n/*\r\n\tTODO:\r\n\t- Check for totalOwnedCourses. It should be called totalSoldCourses since it does not\r\n\ttake into consideration the msg.sender executing the function\r\n\t-\r\n*/\r\n\r\n\r\ncontract CourseMarketplace {\r\n\tenum State {\r\n\t\tPurchased, \r\n\t\tActivated, \r\n\t\tDeactivated\r\n\t}\r\n\r\n\tstruct Course {\r\n\t\tuint256 id;\r\n\t\tuint256 price;\r\n\t\tbytes32 proof;\r\n\t\taddress owner;\r\n\t\tState state;\r\n\t}\r\n\r\n\tbool public isStopped = false;\r\n\r\n\t// Mapping of course data accessed with courseHash\r\n\tmapping(bytes32 => Course) private ownedCourses;\r\n\r\n\t// Mapping of course hash accessed with course id\r\n\tmapping(uint256 => bytes32) private ownedCourseHash;\r\n\r\n\tuint256 private totalOwnedCourses;\r\n\taddress payable private owner;\r\n\r\n\tconstructor() {\r\n\t\tsetContractOwner(msg.sender);\r\n\t} \r\n\r\n\t/*---------------------Modifiers---------------------------*/\r\n\r\n\tmodifier onlyOwner() {\r\n\t\tif (msg.sender != getContractOwner()) {\r\n\t\t\trevert (\"Only contract owner has access to this functionality.\");\r\n\t\t}\r\n\t\t_;\r\n\t}\r\n\t\r\n\tmodifier onlyWhenNotStopped() {\r\n\t\trequire(!isStopped);\r\n\t\t_;\r\n\t}\r\n\r\n\tmodifier onlyWhenStopped() {\r\n\t\trequire(isStopped);\r\n\t\t_;\r\n\t}\r\n\r\n\t/*-----------Stopping/resuming/killing contract-------------*/\r\n\r\n\tfunction selfDestruct() external onlyWhenStopped onlyOwner {\r\n\t\tselfdestruct(owner);\r\n\t}\r\n\r\n\tfunction stopContract() external onlyOwner {\r\n\t\tisStopped = true;\r\n\t}\r\n\r\n\tfunction resumeContract() external onlyOwner {\r\n\t\tisStopped = false;\r\n\t}\r\n\r\n\treceive() external payable {}\r\n\r\n\t/*---------------------Withdrawals----------------------------*/\r\n\r\n\tfunction withdraw(uint256 amount) external onlyOwner {\r\n\t\t(bool success, ) = owner.call{value: amount}(\"\");\r\n\t\trequire(success, \"Transfer failed\");\r\n\t}\r\n\r\n\tfunction emergencyWithdraw() external onlyWhenStopped onlyOwner {\r\n\t\t(bool success, ) = owner.call{value: address(this).balance}(\"\");\r\n\t\trequire(success, \"Transfer failed\");\r\n\t}\r\n\t\r\n\t/*-----------------------Purchase-----------------------------*/\r\n\r\n\tfunction purchaseCourse(bytes16 courseId, bytes32 proof) external payable onlyWhenNotStopped {\r\n\t\t// Create course hash with its id and the buyer's address\r\n\t\tbytes32 courseHash = keccak256(abi.encodePacked(courseId, msg.sender));\r\n\r\n\t\t// CHeck if owner has bought the course before\r\n\t\tif (hasCourseOwnership(courseHash)) {\r\n\t\t\trevert(\"You are already the owner of this course\");\r\n\t\t}\r\n\r\n\t\t// Increment owned courses\r\n\t\tuint256 id = totalOwnedCourses++;\r\n\r\n\t\t// Assign the course hash to the course id in mapping\r\n\t\townedCourseHash[id] = courseHash;\r\n\r\n\t\t// Update course data in mapping\r\n\t\townedCourses[courseHash] = Course({\r\n\t\t\tid: id,\r\n\t\t\tprice: msg.value,\r\n\t\t\tproof: proof,\r\n\t\t\towner: msg.sender,\r\n\t\t\tstate: State.Purchased\r\n\t\t});\r\n\t}\r\n\r\n\t/*-----------------------Repurchase-----------------------------*/\r\n\r\n\tfunction repurchaseCourse(bytes32 courseHash) external payable onlyWhenNotStopped {\r\n\t\tif (!isCourseCreated(courseHash)) {\r\n\t\t\trevert (\"Course is not created\");\r\n\t\t}\r\n\t\r\n\t\tif(!hasCourseOwnership(courseHash)) {\r\n\t\t\trevert (\"Sender is not the course owner\");\r\n\t\t}\r\n\r\n\t\tCourse storage course = ownedCourses[courseHash];\r\n\r\n\t\tif (course.state != State.Deactivated) {\r\n\t\t\trevert (\"Course is not purchased\");\r\n\t\t}\r\n\r\n\t\tcourse.state = State.Purchased;\r\n\t\tcourse.price = msg.value;\r\n\t}\r\n\r\n\t/*------------------------Activate-------------------------------*/\r\n\r\n\tfunction activateCourse(bytes32 courseHash) external onlyWhenNotStopped onlyOwner {\r\n\t\tif(!isCourseCreated(courseHash)) {\r\n\t\t\trevert (\"Course is not created\");\r\n\r\n\t\t}\r\n\r\n\t\tCourse storage course = ownedCourses[courseHash];\r\n\r\n\t\tif(course.state != State.Purchased) {\r\n\t\t\trevert (\"Course is not purchased\");\r\n\t\t}\r\n\r\n\t\tcourse.state = State.Activated;\r\n\t}\r\n\r\n\t/*----------------------Deactivate------------------------------*/\r\n\r\n\tfunction deactivateCourse(bytes32 courseHash) external onlyWhenNotStopped onlyOwner {\r\n\t\tif(!isCourseCreated(courseHash)) {\r\n\t\t\trevert (\"Course is not created\");\r\n\t\t}\r\n\t\r\n\t\tCourse storage course = ownedCourses[courseHash];\r\n\r\n\t\tif(course.state != State.Purchased) {\r\n\t\t\trevert (\"Course is not purchased\");\r\n\t\t}\r\n\r\n\t\t(bool success, ) = course.owner.call{value: course.price}(\"\");\r\n\t\trequire (success, \"Transfer failed\");\r\n\t\t\r\n\t\tcourse.state = State.Deactivated;\r\n\t\tcourse.price = 0;\r\n\t}\r\n\r\n\t/*----------------Course information---------------------*/\r\n\r\n\tfunction getCourseCount() external view returns(uint256) {\r\n\t\treturn totalOwnedCourses;\r\n\t}\r\n\r\n\tfunction getCourseHashAtIndex(uint256 index) external view returns(bytes32) {\r\n\t\treturn ownedCourseHash[index];\r\n\t}\r\n\r\n\tfunction getCourseByHash(bytes32 courseHash) external view returns(Course memory) {\r\n\t\treturn ownedCourses[courseHash];\r\n\t}\r\n\r\n\t/*---------------------Ownership-------------------------*/\r\n\r\n\tfunction getContractOwner() public view returns(address) {\r\n\t\treturn owner;\r\n\t}\r\n\r\n\tfunction setContractOwner(address newOwner) private {\r\n\t\towner = payable(newOwner);\r\n\t}\r\n\r\n\tfunction transferOwnership(address newOwner) external onlyOwner {\t\r\n\t\tsetContractOwner(newOwner);\r\n\t}\r\n\r\n\t/*-----------------Verification helpers-------------------*/\r\n\r\n\tfunction isCourseCreated(bytes32 courseHash) private view returns(bool) {\r\n\t\treturn ownedCourses[courseHash].owner != 0x0000000000000000000000000000000000000000;\r\n\t}\r\n\r\n\tfunction hasCourseOwnership(bytes32 courseHash) private view returns(bool) {\r\n\t\treturn ownedCourses[courseHash].owner == msg.sender;\r\n\t}\r\n}",
  "sourcePath": "C:\\Users\\JuanXavier\\Documents\\coding-projects\\fullstack-bchain\\course-marketplace\\contracts\\CourseMarketplace.sol",
  "compiler": {
    "name": "solc",
    "version": "0.8.13+commit.abaa5c0e.Emscripten.clang"
  },
  "schemaVersion": "3.4.5",
  "updatedAt": "2022-03-21T18:12:20.333Z",
  "devdoc": {
    "kind": "dev",
    "methods": {},
    "version": 1
  },
  "userdoc": {
    "kind": "user",
    "methods": {},
    "version": 1
  }
}